:10002600D2BBBCB6BFDAC1EEA3BAD0A1BDDC0D0A05
:1000360000B6FEBCB6BFDAC1EEA3BA31A1A2B4FACD
:10004600C2EBB2E2CAD40D0A000932A1A2BFAAB716
:10005600A2B0E5D1E9D6A40D0A000933A1A2BFAA30
:10006600B5C60D0A000934A1A2B9D8B5C60D0A0055
:10007600202035A1A2B1B1BEA90D0A000936A1A260
:10008600C9CFBAA30D0A000937A1A2B9E3D6DD0D7F
:100096000A00A1B0B4FAC2EBB2E2CAD4A1B1C3FC61
:1000A600C1EECAB6B1F0B3C9B9A60D0A00A1B0BF78
:1000B600AAB7A2B0E5D1E9D6A4A1B1C3FCC1EECAE4
:1000C600B6B1F0B3C9B9A60D0A00A1B0BFAAB5C6AC
:1000D600A1B1C3FCC1EECAB6B1F0B3C9B9A60D0A47
:1000E60000A1B0B9D8B5C6A1B1C3FCC1EECAB6B1BC
:1000F600F0B3C9B9A60D0A00A1B0B1B1BEA9A1B1AC
:10010600C3FCC1EECAB6B1F0B3C9B9A60D0A00A1C7
:10011600B0C9CFBAA3A1B1C3FCC1EECAB6B1F0B3A0
:10012600C9B9A60D0A00A1B0B9E3D6DDA1B1C3FCD9
:10013600C1EECAB6B1F0B3C9B9A60D0A00C7EBD66F
:10014600D8D0C2CAB6B1F0B7A2BFDAC1EE0D0A0066
:06093A00011C00011B007E
:1004E000E4F5091200061208F61207E1120886E484
:1004F000781CF67BFF7A0079261208AD7BFF7A0024
:1005000079371208AD7BFF7A00794F1208AD7BFF77
:100510007A0079601208AD7BFF7A00796B1208AD22
:100520007BFF7A0079761208AD7BFF7A0079821220
:1005300008AD7BFF7A00798D1208AD781CE6146057
:10054000FA24F1601824DF60F224317020781C76E0
:100550000112074EEF70E4781C763180DE12095BE1
:10056000781EEFF61206F1E4781CF680CEE4781CD3
:03057000F680C84A
:10000600B2C2120922B2C2120922B2C2120922B225
:0C001600C2120922B2C2120922B2C22298
:1008F6007580FF7590FF75A0FF75B0FF75C0FF7519
:0E09060092FFE4F591C2C3D289D2A8D2AF22EB
:0A092F0000007F057E49DEFEDFFCBC
:01093900229B
:0808D2008F148E138D128C119E
:1008DA00E4F515F516F517F518781174FF12017F6E
:0B08EA00EC4D4E4F600512092F80EE10
:0108F50022E0
:0C0922007F117ED07D1BDDFEDEFCDFFAC5
:01092E0022A6
:03000300020822CE
:10082200C0E0C0F0C083C082C0D075D000C000C09C
:1008320001C002C003C004C005C006C00712044BB9
:10084200D007D006D005D004D003D002D001D0000A
:0B085200D0D0D082D083D0F0D0E032B4
:1006F100EF24FE601E24FE602214602724EF602B8D
:1007010014603024E86034242E70387BFF7A00793D
:100711009880367BFF7A0079B3802E7BFF7A00794F
:10072100D080267BFF7A0079E7801E7BFF7A0079F3
:10073100FE80167BFF7A017915800E7BFF7A0179A5
:0D0741002C80067BFF7A0179431208AD225F
:10026B007869616F206A696500000000000000007A
:10027B00000000006B61692066612062616E20796D
:10028B00616E207A68656E67646169206D612063B9
:10029B006520736869000000000000006B61692035
:1002AB0064656E67000000000000000000000000A5
:1002BB006775616E2064656E6700000000000000CA
:1002CB0000000000626569206A696E67000000002B
:1002DB0000000000000000007368616E6720686119
:1002EB006900000000000000000000006775616EEF
:1002FB0067207A686F7500000000000000000000A6
:08030B00000201040516172F82
:1007E100D2B57F017E007D007C001208D2C2B57FA8
:1007F100017E007D007C001208D2D2B57F017E000F
:100801007D007C001208D2C2A17F017E007D007CA8
:10081100001208D2D2A17F017E007D007C00020877
:01082100D204
:100313007F061209507D357F171209457F0A7E003B
:100323007D007C001208D27F061209507D037F896D
:100333001209457F057E007D007C001208D27D43B3
:100343007FCF1209457F057E007D007C001208D215
:100353007D027FCB1209457D0A7F11120945E4FD19
:100363007F1E1209457D3F7F191209457D487F1B7A
:100373001209457D1F7F1D1209457F0A7E007D00FE
:100383007C001208D27D047FCD1209457F057E00D3
:100393007D007C001208D2E4FD7FB91209457D4F30
:0C03A3007FCF1209457DFF7F6F020945E6
:10069200120313E4FD7FBD1209457D487F1712093D
:1006A200457F0A7E007D007C001208D27D807F3C5F
:1006B2001209457D077F3E1209457DFF7F381209E9
:1006C200457D077F3A120945E4FD7F401209457DC9
:1006D200087F42120945E4FD7F441209457D087FE7
:0F06E200461209457F017E007D007C000208D290
:10044B00E4F508C2A87F2B120950781DA607E4FD1E
:10045B007F29120945E4FD7F02120945781DE6301C
:10046B00E42D7FB2120950EF642170237FBF120974
:10047B0050BF351B7FBA1209508F08E508D3940083
:10048B00400DE508D394045006781C761080047850
:10049B001C7611E4FD7F2B120945E4FD7F1C12092C
:1004AB0045E4FD7F29120945E4FD7F02120945E46D
:1004BB00FD7F2B120945E4FD7FBA120945E4FD7F50
:1004CB00BC1209457D017F08120945E4FD7F081226
:0404DB000945D2A855
:0104DF0022FA
:10074E00E4F50AF50BF50A1209617F327E007D0091
:10075E007C001208D21203AFEF700280117F0A7E66
:10076E00007D007C001208D2120573EF7010120784
:10077E00E17F327E007D007C001208D28005750B71
:0E078E00018009050AE50AC3940540BBAF0BC4
:01079C00223A
:10085D00E4F510F50F7FB2120950BF210575100197
:10086D0080147F0A7E007D007C001208D2050FE502
:08087D000FC3940A40DFAF1025
:010885002250
:03096100020692F9
:10057300C2A87D507F351209457D097F1C120945AC
:100583007D207FBD1209457D017F081209457F014A
:100593007E007D007C001208D2E4FD7F081209452D
:1005A3007F017E007D007C001208D212085DEF708F
:1005B30002FF227D0B7F1C1209457DFF7FB21209CA
:1005C300457F017E007D007C001208D27D067F37C7
:1005D3001209457F017E007D007C001208D27D0652
:1005E3007F371209457F057E007D007C001208D20B
:1005F3007D107F29120945E4FD7FBD120945D2A86C
:030603007F012252
:1003AF00750D01E4F50C12085DEF7005F50D0204F3
:1003BF0048E50C90030B93FD7FC1120945E4FD7FC7
:1003CF00C31209457D047F081209457F017E007D18
:1003DF00007C001208D2E4FD7F081209457F017EE0
:1003EF00007D007C001208D2E4F50EE50C75F014C8
:1003FF00A4246BF582E43402F583E582250EF582A1
:10040F00E43583F583E493FD600E7F0512094505FE
:10041F000EE50EC3941440D3AD0E7FB91209457D7E
:10042F00FF7FB21209457D047F37120945050CE5A0
:0B043F000CC3940850030203B5AF0D7E
:01044A00228F
:06095B007FC512095022C5
:0B094500908100EFF0908000EDF022A8
:0B095000908100EFF0908000E0FF229B
:0409400002192580F3
:10088600759850758920AE19AF1AAB07AA06E4F918
:10089600F8FF7EE1FDFC12079D12016F8F8B8F8D95
:0708A600D28ED2ACD2AF22CA
:03002300020022B6
:0100220032AB
:0E091400C2ACC2998F993099FDC299D2AC2223
:1008AD008B0A8A0B890CAB0AAA0BA90C1201566094
:1008BD0013050CE50C7002050B14F9120156FF120D
:0508CD00091480E22285
:03000000020606EF
:0C060600787FE4F6D8FD75811E02064DD9
:10015600BB010689828A83E0225002E722BBFE02A7
:09016600E32289828A83E49322DA
:10079D00C2D5E830E70FB2D5E4C39BFBE49AFAE487
:1007AD0099F9E498F8EC30E717B2D51207D3120196
:1007BD00D9E4C39BFBE49AFAE499F9E498F8800331
:1007CD001201D930D50DE4C39FFFE49EFEE49DFDDB
:0407DD00E49CFC227A
:0E016F00C3E49FFFE49EFEE49DFDE49CFC22A1
:10017D007401FF3395E0FEFDFC080808E6CF2FF66D
:10018D0018E6CE3EF618E6CD3DF618E6CC3CF62246
:100612000204E0E493A3F8E493A34003F68001F21A
:1006220008DFF48029E493A3F85407240CC8C333E9
:10063200C4540F4420C8834004F456800146F6DFB8
:10064200E4800B010204081020408090093AE47E05
:10065200019360BCA3FF543F30E509541FFEE493AD
:10066200A360010ECF54C025E060A840B8E493A374
:10067200FAE493A3F8E493A3C8C582C8CAC583CA9F
:10068200F0A3C8C582C8CAC583CADFE9DEE780BE57
:0109440000B2
:10019D0075F008758200EF2FFFEE33FECD33CDCC19
:1001AD0033CCC58233C5829BED9AEC99E58298409C
:1001BD000CF582EE9BFEED9AFDEC99FC0FD5F0D679
:1001CD00E4CEFBE4CDFAE4CCF9A88222B800C1B9A3
:1001DD000059BA002DEC8BF084CFCECDFCE5F0CBE1
:1001ED00F97818EF2FFFEE33FEED33FDEC33FCEB1A
:1001FD0033FB10D703994004EB99FB0FD8E5E4F9D5
:10020D00FA227818EF2FFFEE33FEED33FDEC33FCC1
:10021D00C933C910D7059BE99A4007EC9BFCE99AB5
:10022D00F90FD8E0E4C9FAE4CCFB2275F010EF2FFA
:10023D00FFEE33FEED33FDCC33CCC833C810D707FA
:10024D009BEC9AE899400AED9BFDEC9AFCE899F835
:0E025D000FD5F0DAE4CDFBE4CCFAE4C8F922C8
:00000001FF
