:10002600D2BBBCB6BFDAC1EEA3BAD0A1BDDC0D0A05
:1000360000B6FEBCB6BFDAC1EEA3BA31A1A2B4FACD
:10004600C2EBB2E2CAD40D0A000932A1A2BFAAB716
:10005600A2B0E5D1E9D6A40D0A000933A1A2BFAA30
:10006600B5C60D0A000934A1A2B9D8B5C60D0A0055
:10007600202035A1A2B1B1BEA90D0A000936A1A260
:10008600C9CFBAA30D0A000937A1A2B9E3D6DD0D7F
:100096000A00CAD5B5BD0D0A00A1B0B4FAC2EBB2CA
:1000A600E2CAD4A1B1C3FCC1EECAB6B1F0B3C9B9B4
:1000B600A60D0A00A1B0BFAAB7A2B0E5D1E9D6A4A1
:1000C600A1B1C3FCC1EECAB6B1F0B3C9B9A60D0A57
:1000D60000A1B0BFAAB5C6A1B1C3FCC1EECAB6B1F4
:1000E600F0B3C9B9A60D0A00A1B0B9D8B5C6A1B179
:1000F600C3FCC1EECAB6B1F0B3C9B9A60D0A00A1D8
:10010600B0B1B1BEA9A1B1C3FCC1EECAB6B1F0B3DC
:10011600C9B9A60D0A00A1B0C9CFBAA3A1B1C3FC43
:10012600C1EECAB6B1F0B3C9B9A60D0A00A1B0B9FD
:10013600E3D6DDA1B1C3FCC1EECAB6B1F0B3C9B90D
:10014600A60D0A00C7EBD6D8D0C2CAB6B1F0B7A280
:10015600BFDAC1EE0D0A00C7EBCBB5B3F6D2BBBC16
:08016600B6BFDAC1EE0D0A007C
:06097800011C00011B0040
:1004F800E4F50912000612093412081F1208C4E4B0
:10050800781CF67BFF7A0079261208EB7BFF7A00CD
:1005180079371208EB7BFF7A00794F1208EB7BFFE3
:100528007A0079601208EB7BFF7A00796B1208EB8E
:100538007BFF7A0079761208EB7BFF7A00798212CA
:1005480008EB7BFF7A00798D1208EB781CE61460C3
:10055800FA24F1601824DF60F224317020781C76C8
:100568000112078CEF70E4781C763180DE1209994D
:10057800781EEFF61206AAE4781CF680CEE4781C02
:03058800F680C832
:10000600B2C2120960B2C2120960B2C2120960B26B
:0C001600C2120960B2C2120960B2C2221C
:100934007580FF7590FF75A0FF75B0FF75C0FF75DA
:0E09440092FFE4F591C2C3D289D2A8D2AF22AD
:0A096D0000007F057E49DEFEDFFC7E
:01097700225D
:080910008F148E138D128C115F
:10091800E4F515F516F517F518781174FF12019717
:0B092800EC4D4E4F600512096D80EE93
:0109330022A1
:0C0960007F117ED07D1BDDFEDEFCDFFA87
:01096C002268
:0300030002086090
:10086000C0E0C0F0C083C082C0D075D000C000C05E
:1008700001C002C003C004C005C006C00712046363
:10088000D007D006D005D004D003D002D001D000CC
:0B089000D0D0D082D083D0F0D0E03276
:1006AA008F0AE50A700D751B01C2C27BFF7A0079B9
:1006BA0098806CE51B64017060F51BD2C2E50A24C0
:1006CA00FE601E24FE602214602724EF602B146053
:1006DA003024E86034242E70387BFF7A00799F80BA
:1006EA003E7BFF7A0079BA80367BFF7A0079D78021
:1006FA002E7BFF7A0079EE80267BFF7A01790580CE
:10070A001E7BFF7A01791C80167BFF7A0179338080
:10071A000E7BFF7A01794A80067BFF7A01795D12A6
:03072A0008EB22B7
:100283007869616F206A6965000000000000000062
:10029300000000006B61692066612062616E207955
:1002A300616E207A68656E67646169206D612063A1
:1002B3006520736869000000000000006B6169201D
:1002C30064656E670000000000000000000000008D
:1002D3006775616E2064656E6700000000000000B2
:1002E30000000000626569206A696E670000000013
:1002F30000000000000000007368616E6720686101
:100303006900000000000000000000006775616ED6
:1003130067207A686F75000000000000000000008D
:08032300000201040516172F6A
:10081F00D2B57F057E007D007C00120910C2B57F26
:10082F00057E007D007C00120910D2B57F057E0089
:10083F007D007C00120910C2A17F057E007D007C27
:10084F0000120910D2A17F057E007D007C000209F5
:01085F001088
:10032B007F0612098E7D357F171209837F0A7E00A7
:10033B007D007C001209107F0612098E7D037F89D8
:10034B001209837F057E007D007C001209107D431E
:10035B007FCF1209837F057E007D007C0012091080
:10036B007D027FCB1209837D0A7F11120983E4FD85
:10037B007F1E1209837D3F7F191209837D487F1BE6
:10038B001209837D1F7F1D1209837F0A7E007D006A
:10039B007C001209107D047FCD1209837F057E003E
:1003AB007D007C00120910E4FD7FB91209837D4F9B
:0C03BB007FCF1209837DFF7F6F02098352
:10072D0012032BE4FD7FBD1209837D487F1712094B
:10073D00837F0A7E007D007C001209107D807F3C46
:10074D001209837D077F3E1209837DFF7F381209D1
:10075D00837D077F3A120983E4FD7F401209837D73
:10076D00087F42120983E4FD7F441209837D087FCF
:0F077D00461209837F017E007D007C0002091077
:10046300E4F508C2A87F2B12098E781DA607E4FDC8
:100473007F29120983E4FD7F02120983781DE63088
:10048300E42D7FB212098EEF642170237FBF12091E
:100493008EBF351B7FBA12098E8F08E508D39400EF
:1004A300400DE508D394045006781C761080047838
:1004B3001C7611E4FD7F2B120983E4FD7F1C1209D6
:1004C30083E4FD7F29120983E4FD7F02120983E49B
:1004D300FD7F2B120983E4FD7FBA120983E4FD7FBC
:1004E300BC1209837D017F08120983E4FD7F081292
:0404F3000983D2A8FF
:0104F70022E2
:10078C00E4F50AF50BF50A12099F7F327E007D0015
:10079C007C001209101203C7EF700280117F0A7ED1
:1007AC00007D007C0012091012058BEF70101208EE
:1007BC001F7F327E007D007C001209108005750BB6
:0E07CC00018009050AE50AC3940540BBAF0B86
:0107DA0022FC
:10089B00E4F510F50F7FB212098EBF21057510011B
:1008AB0080147F0A7E007D007C00120910050FE585
:0808BB000FC3940A40DFAF10E7
:0108C3002212
:03099F0002072D1F
:10058B00C2A87D557F351209837D097F1C12098313
:10059B007D207FBD1209837D017F081209837F01B6
:1005AB007E007D007C00120910E4FD7F0812098398
:1005BB007F017E007D007C0012091012089BEF70FA
:1005CB0002FF227D0B7F1C1209837DFF7FB2120974
:1005DB00837F017E007D007C001209107D067F3732
:1005EB001209837F017E007D007C001209107D06BD
:1005FB007F371209837F057E007D007C0012091076
:10060B007D107F29120983E4FD7FBD120983D2A8D7
:03061B007F01223A
:1003C700750D01E4F50C12089BEF7005F50D02049D
:1003D70060E50C90032393FD7FC1120983E4FD7F41
:1003E700C31209837D047F081209837F017E007D84
:1003F700007C00120910E4FD7F081209837F017E4B
:10040700007D007C00120910E4F50EE50C75F01470
:10041700A42483F582E43402F583E582250EF58270
:10042700E43583F583E493FD600E7F0512098305A8
:100437000EE50EC3941440D3AD0E7FB91209837D28
:10044700FF7FB21209837D047F37120983050CE50C
:0B0457000CC3940850030203CDAF0D4E
:010462002277
:060999007FC512098E2249
:0B098300908100EFF0908000EDF0226A
:0B098E00908100EFF0908000E0FF225D
:04097E0002192580B5
:1008C400759850758920AE19AF1AAB07AA06E4F9DA
:1008D400F8FF7EE1FDFC1207DB1201878F8B8F8D01
:0708E400D28ED2ACD2AF228C
:03002300020022B6
:0100220032AB
:0E095200C2ACC2998F993099FDC299D2AC22E5
:1008EB008B0B8A0C890DAB0BAA0CA90D12016E6038
:1008FB0013050DE50D7002050C14F912016EFF12B4
:05090B00095280E22208
:0300000002061ED7
:0C061E00787FE4F6D8FD75811E020665A9
:10016E00BB010689828A83E0225002E722BBFE028F
:09017E00E32289828A83E49322C2
:1007DB00C2D5E830E70FB2D5E4C39BFBE49AFAE449
:1007EB0099F9E498F8EC30E717B2D5120811120119
:1007FB00F1E4C39BFBE49AFAE499F9E498F88003DB
:10080B001201F130D50DE4C39FFFE49EFEE49DFD84
:04081B00E49CFC223B
:0E018700C3E49FFFE49EFEE49DFDE49CFC2289
:100195007401FF3395E0FEFDFC080808E6CF2FF655
:1001A50018E6CE3EF618E6CD3DF618E6CC3CF6222E
:10062A000204F8E493A3F8E493A34003F68001F2EA
:10063A0008DFF48029E493A3F85407240CC8C333D1
:10064A00C4540F4420C8834004F456800146F6DFA0
:10065A00E4800B0102040810204080900978E47EAF
:10066A00019360BCA3FF543F30E509541FFEE49395
:10067A00A360010ECF54C025E060A840B8E493A35C
:10068A00FAE493A3F8E493A3C8C582C8CAC583CA87
:10069A00F0A3C8C582C8CAC583CADFE9DEE780BE3F
:010982000074
:1001B50075F008758200EF2FFFEE33FECD33CDCC01
:1001C50033CCC58233C5829BED9AEC99E582984084
:1001D5000CF582EE9BFEED9AFDEC99FC0FD5F0D661
:1001E500E4CEFBE4CDFAE4CCF9A88222B800C1B98B
:1001F5000059BA002DEC8BF084CFCECDFCE5F0CBC9
:10020500F97818EF2FFFEE33FEED33FDEC33FCEB01
:1002150033FB10D703994004EB99FB0FD8E5E4F9BC
:10022500FA227818EF2FFFEE33FEED33FDEC33FCA9
:10023500C933C910D7059BE99A4007EC9BFCE99A9D
:10024500F90FD8E0E4C9FAE4CCFB2275F010EF2FE2
:10025500FFEE33FEED33FDCC33CCC833C810D707E2
:100265009BEC9AE899400AED9BFDEC9AFCE899F81D
:0E0275000FD5F0DAE4CDFBE4CCFAE4C8F922B0
:00000001FF
