:10002600B4AEBFDAD4CBD0D0D6D02E2E2E2E0D0A1B
:1000360000BFDAC1EEA3BA31A1A2B4FAC2EBB2E2B2
:10004600CAD40D0A000932A1A2BFAAB7A2B0E5D14F
:10005600E9D6A40D0A000933A1A2BFAAB5C60D0AA6
:10006600000934A1A2B9D8B5C60D0A002020202067
:1000760035A1A2B1B1BEA90D0A000936A1A2C9CF08
:10008600BAA30D0A000937A1A2B9E3D6DD0D0A000D
:10009600A1B0B4FAC2EBB2E2CAD4A1B1C3FCC1EEBC
:1000A600CAB6B1F0B3C9B9A60D0A00A1B0BFAAB7C6
:1000B600A2B0E5D1E9D6A4A1B1C3FCC1EECAB6B1DE
:1000C600F0B3C9B9A60D0A00A1B0BFAAB5C6A1B1C1
:1000D600C3FCC1EECAB6B1F0B3C9B9A60D0A00A1F8
:1000E600B0B9D8B5C6A1B1C3FCC1EECAB6B1F0B3BA
:1000F600C9B9A60D0A00A1B0B1B1BEA9A1B1C3FC90
:10010600C1EECAB6B1F0B3C9B9A60D0A00A1B0C90D
:10011600CFBAA3A1B1C3FCC1EECAB6B1F0B3C9B997
:10012600A60D0A00A1B0B9E3D6DDA1B1C3FCC1EEAC
:10013600CAB6B1F0B3C9B9A60D0A00C7EBD6D8D076
:0E014600C2CAB6B1F0B7A2BFDAC1EE0D0A0010
:06093B00011C00011B007D
:1004DE00E4F5091200061208F71207E2120887E483
:1004EE00781CF67BFF7A0079261208AE7BFF7A0025
:1004FE0079371208AE7BFF7A00794B1208AE7BFF7C
:10050E007A00795C1208AE7BFF7A0079671208AE2A
:10051E007BFF7A0079721208AE7BFF7A0079801227
:10052E0008AE7BFF7A00798B1208AE781CE6146059
:10053E00FA24F1601824DF60F224317020781C76E2
:10054E000112074FEF70E4781C763180DE12095CE1
:10055E00781EEFF6120690E4781CF680CEE4781C36
:03056E00F680C84C
:10000600B2C2120923B2C2120923B2C2120923B222
:0C001600C2120923B2C2120923B2C22296
:1008F7007580FF7590FF75A0FF75B0FF75C0FF7518
:0E09070092FFE4F591C2C3D289D2A8D2AF22EA
:0A09300000007F057E49DEFEDFFCBB
:01093A00229A
:0808D3008F148E138D128C119D
:1008DB00E4F515F516F517F518781174FF12017D6F
:0B08EB00EC4D4E4F600512093080EE0E
:0108F60022DF
:0C0923007F117ED07D1BDDFEDEFCDFFAC4
:01092F0022A5
:03000300020823CD
:10082300C0E0C0F0C083C082C0D075D000C000C09B
:1008330001C002C003C004C005C006C007120449BA
:10084300D007D006D005D004D003D002D001D00009
:0B085300D0D0D082D083D0F0D0E032B3
:1006900020C15CEF24FE601E24FE6022146027242B
:1006A000EF602B14603024E86034242E70387BFF18
:1006B0007A00799680367BFF7A0079B1802E7BFFB5
:1006C0007A0079CE80267BFF7A0079E5801E7BFF59
:1006D0007A0079FC80167BFF7A017913800E7BFF0C
:1006E0007A01792A80067BFF7A0179411208AE22CD
:100269007869616F206A696500000000000000007C
:10027900000000006B61692066612062616E20796F
:10028900616E207A68656E67646169206D612063BB
:100299006520736869000000000000006B61692037
:1002A90064656E67000000000000000000000000A7
:1002B9006775616E2064656E6700000000000000CC
:1002C90000000000626569206A696E67000000002D
:1002D90000000000000000007368616E672068611B
:1002E9006900000000000000000000006775616EF1
:1002F90067207A686F7500000000000000000000A8
:08030900000201040516172F84
:1007E200D2B57F017E007D007C001208D3C2B57FA6
:1007F200017E007D007C001208D3D2B57F017E000D
:100802007D007C001208D3C2A17F017E007D007CA6
:10081200001208D3D2A17F017E007D007C00020875
:01082200D302
:100311007F061209517D357F171209467F0A7E003B
:100321007D007C001208D37F061209517D037F896D
:100331001209467F057E007D007C001208D37D43B3
:100341007FCF1209467F057E007D007C001208D315
:100351007D027FCB1209467D0A7F11120946E4FD19
:100361007F1E1209467D3F7F191209467D487F1B7A
:100371001209467D1F7F1D1209467F0A7E007D00FE
:100381007C001208D37D047FCD1209467F057E00D3
:100391007D007C001208D3E4FD7FB91209467D4F30
:0C03A1007FCF1209467DFF7F6F020946E6
:1006F000120311E4FD7FBD1209467D487F171209E0
:10070000467F0A7E007D007C001208D37D807F3CFE
:100710001209467D077F3E1209467DFF7F38120988
:10072000467D077F3A120946E4FD7F401209467D67
:10073000087F42120946E4FD7F441209467D087F86
:0F074000461209467F017E007D007C000208D32F
:10044900E4F508C2A87F2B120951781DA607E4FD1F
:100459007F29120946E4FD7F02120946781DE6301C
:10046900E42D7FB2120951EF642170237FBF120975
:1004790051BF351B7FBA1209518F08E508D3940083
:10048900400DE508D394045006781C761080047852
:100499001C7611E4FD7F2B120946E4FD7F1C12092D
:1004A90046E4FD7F29120946E4FD7F02120946E46C
:1004B900FD7F2B120946E4FD7FBA120946E4FD7F50
:1004C900BC1209467D017F08120946E4FD7F081226
:0404D9000946D2A856
:0104DD0022FC
:10074F00E4F50AF50BF50A1209627F327E007D008F
:10075F007C001208D31203ADEF700280117F0A7E66
:10076F00007D007C001208D3120571EF7010120784
:10077F00E27F327E007D007C001208D38005750B6E
:0E078F00018009050AE50AC3940540BBAF0BC3
:01079D002239
:10085E00E4F510F50F7FB2120951BF210575100195
:10086E0080147F0A7E007D007C001208D3050FE500
:08087E000FC3940A40DFAF1024
:01088600224F
:030962000206F09A
:10057100C2A87D507F351209467D097F1C120946AC
:100581007D207FBD1209467D017F081209467F014A
:100591007E007D007C001208D3E4FD7F081209462D
:1005A1007F017E007D007C001208D312085EEF708F
:1005B10002FF227D0B7F1C1209467DFF7FB21209CB
:1005C100467F017E007D007C001208D37D067F37C7
:1005D1001209467F017E007D007C001208D37D0652
:1005E1007F371209467F057E007D007C001208D30B
:1005F1007D107F29120946E4FD7FBD120946D2A86C
:030601007F012254
:1003AD00750D01E4F50C12085EEF7005F50D0204F4
:1003BD0046E50C90030993FD7FC1120946E4FD7FCC
:1003CD00C31209467D047F081209467F017E007D18
:1003DD00007C001208D3E4FD7F081209467F017EE0
:1003ED00007D007C001208D3E4F50EE50C75F014C9
:1003FD00A42469F582E43402F583E582250EF582A5
:10040D00E43583F583E493FD600E7F0512094605FF
:10041D000EE50EC3941440D3AD0E7FB91209467D7F
:10042D00FF7FB21209467D047F37120946050CE5A0
:0B043D000CC3940850030203B3AF0D82
:010448002291
:06095C007FC512095122C3
:0B094600908100EFF0908000EDF022A7
:0B095100908100EFF0908000E0FF229A
:0409410002192580F2
:10088700759850758920AE19AF1AAB07AA06E4F917
:10089700F8FF7EE1FDFC12079E12016D8F8B8F8D95
:0708A700D28ED2ACD2AF22C9
:03002300020022B6
:0100220032AB
:0E091500C2ACC2998F993099FDC299D2AC2222
:1008AE008B0A8A0B890CAB0AAA0BA90C1201546095
:1008BE0013050CE50C7002050B14F9120154FF120E
:0508CE00091580E22283
:03000000020604F1
:0C060400787FE4F6D8FD75811E02064BDD
:10015400BB010689828A83E0225002E722BBFE02A9
:09016400E32289828A83E49322DC
:10079E00C2D5E830E70FB2D5E4C39BFBE49AFAE486
:1007AE0099F9E498F8EC30E717B2D51207D4120194
:1007BE00D7E4C39BFBE49AFAE499F9E498F8800332
:1007CE001201D730D50DE4C39FFFE49EFEE49DFDDC
:0407DE00E49CFC2279
:0E016D00C3E49FFFE49EFEE49DFDE49CFC22A3
:10017B007401FF3395E0FEFDFC080808E6CF2FF66F
:10018B0018E6CE3EF618E6CD3DF618E6CC3CF62248
:100610000204DEE493A3F8E493A34003F68001F21E
:1006200008DFF48029E493A3F85407240CC8C333EB
:10063000C4540F4420C8834004F456800146F6DFBA
:10064000E4800B010204081020408090093BE47E06
:10065000019360BCA3FF543F30E509541FFEE493AF
:10066000A360010ECF54C025E060A840B8E493A376
:10067000FAE493A3F8E493A3C8C582C8CAC583CAA1
:10068000F0A3C8C582C8CAC583CADFE9DEE780BE59
:0109450000B1
:10019B0075F008758200EF2FFFEE33FECD33CDCC1B
:1001AB0033CCC58233C5829BED9AEC99E58298409E
:1001BB000CF582EE9BFEED9AFDEC99FC0FD5F0D67B
:1001CB00E4CEFBE4CDFAE4CCF9A88222B800C1B9A5
:1001DB000059BA002DEC8BF084CFCECDFCE5F0CBE3
:1001EB00F97818EF2FFFEE33FEED33FDEC33FCEB1C
:1001FB0033FB10D703994004EB99FB0FD8E5E4F9D7
:10020B00FA227818EF2FFFEE33FEED33FDEC33FCC3
:10021B00C933C910D7059BE99A4007EC9BFCE99AB7
:10022B00F90FD8E0E4C9FAE4CCFB2275F010EF2FFC
:10023B00FFEE33FEED33FDCC33CCC833C810D707FC
:10024B009BEC9AE899400AED9BFDEC9AFCE899F837
:0E025B000FD5F0DAE4CDFBE4CCFAE4C8F922CA
:00000001FF
