:10002600D2BBBCB6BFDAC1EEA3BAD0A1BDDC0D0A05
:1000360000B6FEBCB6BFDAC1EEA3BA31A1A2B4FACD
:10004600C2EBB2E2CAD40D0A000932A1A2BFAAB716
:10005600A2B0E5D1E9D6A40D0A000933A1A2BFAA30
:10006600B5C60D0A000934A1A2B9D8B5C60D0A0055
:10007600202035A1A2B1B1BEA90D0A000936A1A260
:10008600C9CFBAA30D0A000937A1A2B9E3D6DD0D7F
:100096000A0009D3EFD2F4CFB5CDB3C6F4B6AFCDCF
:1000A600EAB3C90D0A0047305F666C61670D0A0046
:1000B600A1B0B4FAC2EBB2E2CAD4A1B1C3FCC1EE9C
:1000C600CAB6B1F0B3C9B9A60D0A00A1B0BFAAB7A6
:1000D600A2B0E5D1E9D6A4A1B1C3FCC1EECAB6B1BE
:1000E600F0B3C9B9A60D0A00A1B0BFAAB5C6A1B1A1
:1000F600C3FCC1EECAB6B1F0B3C9B9A60D0A00A1D8
:10010600B0B9D8B5C6A1B1C3FCC1EECAB6B1F0B399
:10011600C9B9A60D0A00A1B0B1B1BEA9A1B1C3FC6F
:10012600C1EECAB6B1F0B3C9B9A60D0A00A1B0C9ED
:10013600CFBAA3A1B1C3FCC1EECAB6B1F0B3C9B977
:10014600A60D0A00A1B0B9E3D6DDA1B1C3FCC1EE8C
:10015600CAB6B1F0B3C9B9A60D0A00C7EBD6D8D056
:10016600C2CAB6B1F0B7A2BFDAC1EE0D0A00C7EB3C
:0F017600CBB5B3F6D2BBBCB6BFDAC1EE0D0A00F3
:0609B300011C00011B0005
:1003E200E4F50912097112000612085C120901E40F
:1003F200781CF67BFF7A0079261209287BFF7A00A7
:1004020079371209287BFF7A00794F1209287BFF7E
:100412007A0079601209287BFF7A00796B12092829
:100422007BFF7A0079761209287BFF7A00798212A3
:1004320009287BFF7A00798D1209287BFF7A0079DF
:1004420098120928781CE61460FA24F1601824DF57
:1004520060F224317020781C76011207C9EF70E433
:10046200781C763180DE1209D4781EEFF612034230
:0C047200E4781CF680CEE4781CF680C80C
:10097100B2C212099BB2C212099BB2C212099BB246
:0C098100C212099BB2C212099BB2C22232
:100006007580FFE4F59075A0FF75B0FF75C0FF75AC
:0D00160092FFF591C2C3D289D2A8D2AF22C9
:0A09A80000007F057E49DEFEDFFC43
:0109B2002222
:08094D008F148E138D128C1122
:10095500E4F515F516F517F518781174FF1201AEC3
:0B096500EC4D4E4F60051209A880EE1B
:010970002264
:0C099B007F117ED07D1BDDFEDEFCDFFA4C
:0109A700222D
:0300030002089D53
:10089D00C0E0C0F0C083C082C0D075D000C000C021
:1008AD0001C002C003C004C005C006C0071205B6D2
:1008BD00D007D006D005D004D003D002D001D0008F
:0B08CD00D0D0D082D083D0F0D0E03239
:100342008F0AE50A700E751B01C2C27BFF7A007923
:10035200AC0203DEE51B6401707CF51BD2C2E50A28
:1003620024FE602224FE602A14603324EF603B14D2
:10037200604424E8604C242E70547BFF7A0079B6E6
:10038200120928D290227BFF7A0079D1120928D251
:1003920091227BFF7A0079EE120928D292227BFF0A
:1003A2007A017905120928C292227BFF7A01791C0F
:1003B200120928D293227BFF7A017933120928D2BB
:1003C20094227BFF7A01794A120928D295227BFF77
:1003D2007A01796180067BFF7A01797412092822F9
:10029A007869616F206A696500000000000000004B
:1002AA00000000006B61692066612062616E20793E
:1002BA00616E207A68656E67646169206D6120638A
:1002CA006520736869000000000000006B61692006
:1002DA0064656E6700000000000000000000000076
:1002EA006775616E2064656E67000000000000009B
:1002FA0000000000626569206A696E6700000000FC
:10030A0000000000000000007368616E67206861E9
:10031A006900000000000000000000006775616EBF
:10032A0067207A686F750000000000000000000076
:08033A00000201040516172F53
:10085C00D2B57F017E007D007C0012094DC2B57FB0
:10086C00017E007D007C0012094DD2B57F017E0017
:10087C007D007C0012094DC2A17F017E007D007CB1
:10088C000012094DD2A17F017E007D007C0002097F
:01089C004D0E
:10047E007F061209C97D357F171209BE7F0A7E00DD
:10048E007D007C0012094D7F061209C97D037F890C
:10049E001209BE7F057E007D007C0012094D7D4352
:1004AE007FCF1209BE7F057E007D007C0012094DB4
:1004BE007D027FCB1209BE7D0A7F111209BEE4FDBB
:1004CE007F1E1209BE7D3F7F191209BE7D487F1B1C
:1004DE001209BE7D1F7F1D1209BE7F0A7E007D00A0
:1004EE007C0012094D7D047FCD1209BE7F057E0072
:1004FE007D007C0012094DE4FD7FB91209BE7D4FCF
:0C050E007FCF1209BE7DFF7F6F0209BE87
:10076A0012047EE4FD7FBD1209BE7D487F1712097F
:10077A00BE7F0A7E007D007C0012094D7D807F3C91
:10078A001209BE7D077F3E1209BE7DFF7F3812091E
:10079A00BE7D077F3A1209BEE4FD7F401209BE7D85
:1007AA00087F421209BEE4FD7F441209BE7D087F1C
:0F07BA00461209BE7F017E007D007C0002094DC2
:1005B600E4F508C2A87F2B1209C9781DA607E4FD39
:1005C6007F291209BEE4FD7F021209BE781DE630BE
:1005D600E42D7FB21209C9EF642170237FBF12098F
:1005E600C9BF351B7FBA1209C98F08E508D3940025
:1005F600400DE508D394045006781C7610800478E4
:100606001C7611E4FD7F2B1209BEE4FD7F1C120946
:10061600BEE4FD7F291209BEE4FD7F021209BEE495
:10062600FD7F2B1209BEE4FD7FBA1209BEE4FD7FF1
:10063600BC1209BE7D017F081209BEE4FD7F0812C7
:0406460009BED2A86F
:01064A00228D
:1007C900E4F50AF50BF50A1209DA7F327E007D009D
:1007D9007C0012094D12051AEF700280117F0A7E02
:1007E900007D007C0012094D12064BEF70101208B3
:1007F9005C7F327E007D007C0012094D8005750BFF
:0E080900018009050AE50AC3940540BBAF0B48
:0108170022BE
:1008D800E4F510F50F7FB21209C9BF2105751001A3
:1008E80080147F0A7E007D007C0012094D050FE50B
:0808F8000FC3940A40DFAF10AA
:0109000022D4
:0309DA0002076AA7
:10064B00C2A87D557F351209BE7D097F1C1209BEDC
:10065B007D207FBD1209BE7D017F081209BE7F017F
:10066B007E007D007C0012094DE4FD7F081209BE5F
:10067B007F017E007D007C0012094D1208D8EF70BF
:10068B0002FF227D0B7F1C1209BE7DFF7FB2120978
:10069B00BE7F017E007D007C0012094D7D067F37F9
:1006AB001209BE7F017E007D007C0012094D7D0684
:1006BB007F371209BE7F057E007D007C0012094D3D
:1006CB007D107F291209BEE4FD7FBD1209BED2A8A1
:0306DB007F01227A
:10051A00750D01E4F50C1208D8EF7005F50D02050A
:10052A00B3E50C90033A93FD7FC11209BEE4FD7F47
:10053A00C31209BE7D047F081209BE7F017E007DB9
:10054A00007C0012094DE4FD7F081209BE7F017E7E
:10055A00007D007C0012094DE4F50EE50C75F014DF
:10056A00A4249AF582E43402F583E582250EF58205
:10057A00E43583F583E493FD600E7F051209BE0519
:10058A000EE50EC3941440D3AD0E7FB91209BE7D99
:10059A00FF7FB21209BE7D047F371209BE050CE542
:0B05AA000CC394085003020520AF0DA5
:0105B5002223
:0609D4007FC51209C922D3
:0B09BE00908100EFF0908000EDF0222F
:0B09C900908100EFF0908000E0FF2222
:0409B900021925807A
:10090100759850758920AE19AF1AAB07AA06E4F99C
:10091100F8FF7EE1FDFC12081812019E8F8B8F8D6E
:07092100D28ED2ACD2AF224E
:030023000209DDF2
:0109DD0032E7
:0E098D00C2ACC2998F993099FDC299D2AC22AA
:100928008B0B8A0C890DAB0BAA0CA90D12018560E3
:1009380013050DE50D7002050C14F9120185FF125F
:05094800098D80E22290
:030000000206DE17
:0C06DE00787FE4F6D8FD75811E02072528
:10018500BB010689828A83E0225002E722BBFE0278
:09019500E32289828A83E49322AB
:10081800C2D5E830E70FB2D5E4C39BFBE49AFAE40B
:1008280099F9E498F8EC30E717B2D512084E12029D
:1008380008E4C39BFBE49AFAE499F9E498F8800386
:1008480012020830D50DE4C39FFFE49EFEE49DFD2F
:04085800E49CFC22FE
:0E019E00C3E49FFFE49EFEE49DFDE49CFC2272
:1001AC007401FF3395E0FEFDFC080808E6CF2FF63E
:1001BC0018E6CE3EF618E6CD3DF618E6CC3CF62217
:1006EA000203E2E493A3F8E493A34003F68001F241
:1006FA0008DFF48029E493A3F85407240CC8C33311
:10070A00C4540F4420C8834004F456800146F6DFDF
:10071A00E4800B01020408102040809009B3E47EB3
:10072A00019360BCA3FF543F30E509541FFEE493D4
:10073A00A360010ECF54C025E060A840B8E493A39B
:10074A00FAE493A3F8E493A3C8C582C8CAC583CAC6
:10075A00F0A3C8C582C8CAC583CADFE9DEE780BE7E
:0109BD000039
:1001CC0075F008758200EF2FFFEE33FECD33CDCCEA
:1001DC0033CCC58233C5829BED9AEC99E58298406D
:1001EC000CF582EE9BFEED9AFDEC99FC0FD5F0D64A
:1001FC00E4CEFBE4CDFAE4CCF9A88222B800C1B974
:10020C000059BA002DEC8BF084CFCECDFCE5F0CBB1
:10021C00F97818EF2FFFEE33FEED33FDEC33FCEBEA
:10022C0033FB10D703994004EB99FB0FD8E5E4F9A5
:10023C00FA227818EF2FFFEE33FEED33FDEC33FC92
:10024C00C933C910D7059BE99A4007EC9BFCE99A86
:10025C00F90FD8E0E4C9FAE4CCFB2275F010EF2FCB
:10026C00FFEE33FEED33FDCC33CCC833C810D707CB
:10027C009BEC9AE899400AED9BFDEC9AFCE899F806
:0E028C000FD5F0DAE4CDFBE4CCFAE4C8F92299
:00000001FF
