:10002600D2BBBCB6BFDAC1EEA3BAD0A1BDDC0D0A05
:1000360000B6FEBCB6BFDAC1EEA3BA31A1A2B4FACD
:10004600C2EBB2E2CAD40D0A000932A1A2BFAAB716
:10005600A2B0E5D1E9D6A40D0A000933A1A2BFAA30
:10006600B5C60D0A000934A1A2B9D8B5C60D0A0055
:10007600202035A1A2B1B1BEA90D0A000936A1A260
:10008600C9CFBAA30D0A000937A1A2B9E3D6DD0D7F
:100096000A0009D3EFD2F4CFB5CDB3C6F4B6AFCDCF
:1000A600EAB3C90D0A00A1B0B4FAC2EBB2E2CAD4EF
:1000B600A1B1C3FCC1EECAB6B1F0B3C9B9A60D0A67
:1000C60000A1B0BFAAB7A2B0E5D1E9D6A4A1B1C339
:1000D600FCC1EECAB6B1F0B3C9B9A60D0A00A1B00B
:1000E600BFAAB5C6A1B1C3FCC1EECAB6B1F0B3C9C9
:1000F600B9A60D0A00A1B0B9D8B5C6A1B1C3FCC155
:10010600EECAB6B1F0B3C9B9A60D0A00A1B0B1B135
:10011600BEA9A1B1C3FCC1EECAB6B1F0B3C9B9A6B6
:100126000D0A00A1B0C9CFBAA3A1B1C3FCC1EECAE2
:10013600B6B1F0B3C9B9A60D0A00A1B0B9E3D6DDD0
:10014600A1B1C3FCC1EECAB6B1F0B3C9B9A60D0AD6
:1001560000C7EBD6D8D0C2CAB6B1F0B7A2BFDAC1D3
:10016600EE0D0A00C7EBCBB5B3F6D2BBBCB6BFDA11
:05017600C1EE0D0A00BE
:06099D00011C00011B001B
:10033800E4F50912095B1200061208461208EBE4FC
:10034800781CF67BFF7A0079261209127BFF7A0067
:1003580079371209127BFF7A00794F1209127BFF55
:100368007A0079601209127BFF7A00796B12091200
:100378007BFF7A0079761209127BFF7A0079821264
:1003880009127BFF7A00798D1209127BFF7A0079B6
:1003980098120912781CE61460FA24F1601824DF18
:1003A80060F224317020781C76011207B3EF70E4F4
:1003B800781C763180DE1209BE781EEFF61205A190
:0C03C800E4781CF680CEE4781CF680C8B7
:10095B00B2C2120985B2C2120985B2C2120985B29E
:0C096B00C2120985B2C2120985B2C22274
:100006007580FFE4F59075A0FF75B0FF75C0FF75AC
:0D00160092FFF591C2C3D289D2A8D2AF22C9
:0A09920000007F057E49DEFEDFFC59
:01099C002238
:080937008F148E138D128C1138
:10093F00E4F515F516F517F518781174FF1201A4E3
:0B094F00EC4D4E4F600512099280EE47
:01095A00227A
:0C0985007F117ED07D1BDDFEDEFCDFFA62
:010991002243
:0300030002088769
:10088700C0E0C0F0C083C082C0D075D000C000C037
:1008970001C002C003C004C005C006C00712050C92
:1008A700D007D006D005D004D003D002D001D000A5
:0B08B700D0D0D082D083D0F0D0E0324F
:1005A100EF7006751B01C2C222E51B6401707BF569
:1005B1001BD2C2EF24FE602224FE602A1460332481
:1005C100EF603B14604424E8604C242E70547BFFA0
:1005D1007A0079AC120912D290227BFF7A0079C796
:1005E100120912D291227BFF7A0079E4120912D208
:1005F10092227BFF7A0079FB120912C292227BFFC1
:100601007A017912120912D293227BFF7A01792998
:10061100120912D294227BFF7A017940120912D277
:1006210095227BFF7A01795780067BFF7A01796AEF
:040631001209122276
:100290007869616F206A6965000000000000000055
:1002A000000000006B61692066612062616E207948
:1002B000616E207A68656E67646169206D61206394
:1002C0006520736869000000000000006B61692010
:1002D00064656E6700000000000000000000000080
:1002E0006775616E2064656E6700000000000000A5
:1002F00000000000626569206A696E670000000006
:1003000000000000000000007368616E67206861F3
:100310006900000000000000000000006775616EC9
:1003200067207A686F750000000000000000000080
:08033000000201040516172F5D
:10084600D2B57F017E007D007C00120937C2B57FDC
:10085600017E007D007C00120937D2B57F017E0043
:100866007D007C00120937C2A17F017E007D007CDD
:1008760000120937D2A17F017E007D007C000209AB
:01088600373A
:1003D4007F061209B37D357F171209A87F0A7E00B4
:1003E4007D007C001209377F061209B37D037F89E3
:1003F4001209A87F057E007D007C001209377D4329
:100404007FCF1209A87F057E007D007C001209378A
:100414007D027FCB1209A87D0A7F111209A8E4FD91
:100424007F1E1209A87D3F7F191209A87D487F1BF2
:100434001209A87D1F7F1D1209A87F0A7E007D0076
:100444007C001209377D047FCD1209A87F057E0048
:100454007D007C00120937E4FD7FB91209A87D4FA5
:0C0464007FCF1209A87DFF7F6F0209A85E
:100754001203D4E4FD7FBD1209A87D487F17120956
:10076400A87F0A7E007D007C001209377D807F3CD3
:100774001209A87D077F3E1209A87DFF7F38120960
:10078400A87D077F3A1209A8E4FD7F401209A87DDD
:10079400087F421209A8E4FD7F441209A87D087F5E
:0F07A400461209A87F017E007D007C0002093704
:10050C00E4F508C2A87F2B1209B3781DA607E4FDF9
:10051C007F291209A8E4FD7F021209A8781DE63094
:10052C00E42D7FB21209B3EF642170237FBF12094F
:10053C00B3BF351B7FBA1209B38F08E508D39400FB
:10054C00400DE508D394045006781C76108004788E
:10055C001C7611E4FD7F2B1209A8E4FD7F1C120907
:10056C00A8E4FD7F291209A8E4FD7F021209A8E482
:10057C00FD7F2B1209A8E4FD7FBA1209A8E4FD7FC8
:10058C00BC1209A87D017F081209A8E4FD7F08129E
:04059C0009A8D2A830
:0105A0002238
:1007B300E4F50AF50BF50A1209C47F327E007D00C9
:1007C3007C00120937120470EF700280117F0A7ED9
:1007D300007D007C00120937120635EF70101208F5
:1007E300467F327E007D007C001209378005750B41
:0E07F300018009050AE50AC3940540BBAF0B5F
:0108010022D4
:1008C200E4F510F50F7FB21209B3BF2105751001CF
:1008D20080147F0A7E007D007C00120937050FE537
:0808E2000FC3940A40DFAF10C0
:0108EA0022EB
:0309C400020754D3
:10063500C2A87D557F351209A87D097F1C1209A81E
:100645007D207FBD1209A87D017F081209A87F01C1
:100655007E007D007C00120937E4FD7F081209A8A1
:100665007F017E007D007C001209371208C2EF7001
:1006750002FF227D0B7F1C1209A87DFF7FB21209A4
:10068500A87F017E007D007C001209377D067F373B
:100695001209A87F017E007D007C001209377D06C6
:1006A5007F371209A87F057E007D007C001209377F
:1006B5007D107F291209A8E4FD7FBD1209A8D2A8E3
:0306C5007F012290
:10047000750D01E4F50C1208C2EF7005F50D0205CB
:1004800009E50C90033093FD7FC11209A8E4FD7FBC
:10049000C31209A87D047F081209A87F017E007D90
:1004A000007C00120937E4FD7F081209A87F017E55
:1004B000007D007C00120937E4F50EE50C75F014A0
:1004C000A42490F582E43402F583E582250EF582BA
:1004D000E43583F583E493FD600E7F051209A805DA
:1004E0000EE50EC3941440D3AD0E7FB91209A87D5A
:1004F000FF7FB21209A87D047F371209A8050CE519
:0B0500000CC394085003020476AF0DFA
:01050B0022CD
:0609BE007FC51209B322FF
:0B09A800908100EFF0908000EDF02245
:0B09B300908100EFF0908000E0FF2238
:0409A3000219258090
:1008EB00759850758920AE19AF1AAB07AA06E4F9B3
:1008FB00F8FF7EE1FDFC1208021201948F8B8F8DA5
:07090B00D28ED2ACD2AF2264
:030023000209C708
:0109C70032FD
:0E097700C2ACC2998F993099FDC299D2AC22C0
:100912008B0A8A0B890CAB0AAA0BA90C12017B6009
:1009220013050CE50C7002050B14F912017BFF1282
:05093200097780E222BC
:030000000206C82D
:0C06C800787FE4F6D8FD75811E02070F54
:10017B00BB010689828A83E0225002E722BBFE0282
:09018B00E32289828A83E49322B5
:10080200C2D5E830E70FB2D5E4C39BFBE49AFAE421
:1008120099F9E498F8EC30E717B2D51208381201CA
:10082200FEE4C39BFBE49AFAE499F9E498F88003A6
:100832001201FE30D50DE4C39FFFE49EFEE49DFD50
:04084200E49CFC2214
:0E019400C3E49FFFE49EFEE49DFDE49CFC227C
:1001A2007401FF3395E0FEFDFC080808E6CF2FF648
:1001B20018E6CE3EF618E6CD3DF618E6CC3CF62221
:1006D400020338E493A3F8E493A34003F68001F201
:1006E40008DFF48029E493A3F85407240CC8C33327
:1006F400C4540F4420C8834004F456800146F6DFF6
:10070400E4800B010204081020408090099DE47EDF
:10071400019360BCA3FF543F30E509541FFEE493EA
:10072400A360010ECF54C025E060A840B8E493A3B1
:10073400FAE493A3F8E493A3C8C582C8CAC583CADC
:10074400F0A3C8C582C8CAC583CADFE9DEE780BE94
:0109A700004F
:1001C20075F008758200EF2FFFEE33FECD33CDCCF4
:1001D20033CCC58233C5829BED9AEC99E582984077
:1001E2000CF582EE9BFEED9AFDEC99FC0FD5F0D654
:1001F200E4CEFBE4CDFAE4CCF9A88222B800C1B97E
:100202000059BA002DEC8BF084CFCECDFCE5F0CBBB
:10021200F97818EF2FFFEE33FEED33FDEC33FCEBF4
:1002220033FB10D703994004EB99FB0FD8E5E4F9AF
:10023200FA227818EF2FFFEE33FEED33FDEC33FC9C
:10024200C933C910D7059BE99A4007EC9BFCE99A90
:10025200F90FD8E0E4C9FAE4CCFB2275F010EF2FD5
:10026200FFEE33FEED33FDCC33CCC833C810D707D5
:100272009BEC9AE899400AED9BFDEC9AFCE899F810
:0E0282000FD5F0DAE4CDFBE4CCFAE4C8F922A3
:00000001FF
